:020000040800F2
:100000001807002039020008550800084D080008AC
:100010005108000871070008851100080000000061
:10002000000000000000000000000000310A00088D
:100030007507000800000000E5080008210B000813
:10004000530200085302000853020008530200083C
:10005000530200085302000853020008530200082C
:10006000530200085302000853020008530200081C
:10007000530200085302000853020008530200080C
:1000800053020008530200085302000853020008FC
:1000900053020008530200085302000853020008EC
:1000A00053020008530200085302000853020008DC
:1000B00053020008530200085302000853020008CC
:1000C00053020008530200085302000853020008BC
:1000D00053020008E50C0008ED0D0008E90E0008C9
:1000E000530200085302000853020008530200089C
:1000F000530200085302000853020008530200088C
:10010000530200085302000853020008530200087B
:100110005302000853020008530200088D0B000828
:10012000530200085302000853020008530200085B
:10013000530200085302000853020008530200084B
:10014000530200085302000853020008530200083B
:10015000530200085302000853020008530200082B
:10016000530200085302000853020008530200081B
:10017000530200085302000853020008530200080B
:10018000530200085302000800F002F800F044F89F
:100190000AA090E8000C82448344AAF10107DA45E2
:1001A00001D100F039F8AFF2090EBAE80F0013F0F0
:1001B000010F18BFFB1A43F001031847B4170000E2
:1001C000D4170000103A24BF78C878C1FAD8520773
:1001D00024BF30C830C144BF04680C6070470000C1
:1001E0000023002400250026103A28BF78C1FBD840
:1001F000520728BF30C148BF0B607047752900F017
:100200008380782900F0BC80002070471FB501F082
:1002100083FA1FBD10B510BD00F078FA1146FFF744
:10022000F5FF00F0FDFF00F096FA03B4FFF7F2FFD0
:1002300003BC00F0B0FF00000948804709480047B0
:10024000FEE7FEE7FEE7FEE7FEE7FEE7FEE7FEE786
:10025000FEE7FEE704480549054A064B70470000E3
:10026000250B00088901000818010020180700204C
:100270001803002018030020704700000FB4044941
:1002800010B503AA029800F0EBF910BC5DF814FB5E
:10029000B400002070B5044685690068C10601D528
:1002A000302600E02026C00707D070BDD4E9012128
:1002B00030469047206A401C20626D1EF6D570BD06
:1002C00070B5044685690078C00707D170BDD4E9D0
:1002D000012120209047206A401C20626D1EF6D527
:1002E00070BD09684A0501D540B27047C905FCD503
:1002F00000B2704709684A0501D5C0B27047C90508
:10030000FCD580B2704700002DE9F041064600247C
:1003100010687529314616A510D0FFF7E2FF0028B6
:1003200002DA404213A507E031688A0701D512A519
:1003300002E0490704D511A5012401E0FFF7DAFF27
:1003400000210A2206F1240709E0B0FBF2FCB0FB11
:10035000F2F302FB1C00303078541846491C002888
:10036000F3D123462A463046BDE8F04100F01EB9DD
:10037000000000002D0000002B0000002000000005
:1003800070B504460D4621461068FFF7B3FF21887B
:10039000090502D50F4A7A4402E00E4A7A440E3229
:1003A000002104F1240305E000F00F060009965D2A
:1003B0005E54491C0028F7D120780023000704D59B
:1003C000702D02D009B1022311322046BDE87040E1
:1003D00000F0ECB8971300002DE9F05F8946044661
:1003E0004FF0000ADFF874B1FB44C0F820A02046AB
:1003F000E1688847002874D0252806D0D4E9012177
:100400009047206A401C2062F1E700265F462046A4
:10041000E16888472028054607DB312D05D2781989
:1004200010F8200C08B10643F1E7B00701D526F01B
:100430000406C4F81CA00027C4F818A02A2D09D06F
:10044000284600F0A1FE38B304EB8708303DC8F819
:10045000185019E059F8041B204604EB87029161FB
:10046000E1688847012F054618D1E069002820DAA5
:1004700026F020061DE0D8F8180000EB800005EB00
:1004800040003038C8F818002046E1688847054623
:1004900000F07AFE0028EED1012F0AD02E2D08D1CF
:1004A0002046E16888477F1C0546022F46F020065B
:1004B000C4DBA069002803DA404246F00106A061CF
:1004C000F00701D026F010066C2D0BD0682D09D056
:1004D0004C2D39D06A2D35D0742D35D07A2D33D0AE
:1004E00016E038E0E1682F4620468847B8420546C6
:1004F00009D16C2F26D04FF48060E1680643204676
:100500008847054604E06C2F1AD04FF480700643EC
:100510000DB3A5F14100192802D8203546F4006634
:100520004A462946204626604E46FFF767FE80B1C0
:1005300001280BD0F61D26F0070000F1080956E748
:100540004020E4E78020D8E70020D6E706F1040940
:100550004DE7284652E7206ABDE8F09F6D13000082
:100560004FF000020429C0F0128010F0030C00F0DC
:100570008B80CCF1040CBCF1020F18BF00F8012BEA
:10058000A8BF20F8022BA1EB0C0100F07DB85FEAB8
:10059000C17C24BF00F8012B00F8012B48BF00F8F4
:1005A000012B704770477047704770472DE9F0473F
:1005B0000D4699469246044600F1240801688806D3
:1005C00004D5E06921F01001216000E00120A8427B
:1005D00001DD471B00E00027A1697A1902EB090041
:1005E000081AA0612078C00602D42046FFF752FE08
:1005F000002608E0D4E901211AF806009047206A95
:10060000401C761C20624E45F4DB2078C0060AD5DB
:100610002046FFF73FFE06E0D4E901213020904755
:10062000206A401C2062381EA7F10107F4DC07E0B5
:10063000D4E9012118F805009047206A401C206287
:10064000281EA5F10105F3DC2046FFF739FE2078CE
:10065000000602D50220BDE8F0870120FBE700007C
:10066000074B70B50D467B4400F039F80446284628
:1006700000F048F810B14FF0FF3070BD204670BD5B
:10068000930B00004FF0000200B5134694469646C7
:10069000203922BFA0E80C50A0E80C50B1F1200195
:1006A000BFF4F7AF090728BFA0E80C5048BF0CC043
:1006B0005DF804EB890028BF40F8042B08BF7047A1
:1006C00048BF20F8022B11F0804F18BF00F8012B13
:1006D0007047000001694A1C02610878704700B544
:1006E0008FB0CDE901310021059105497944CDE96B
:1006F000031011466846FFF76FFE0FB000BD000003
:10070000E5FFFFFF007B00F080007047754600F0BA
:100710002BF8AE4605006946534620F00700854693
:1007200018B020B5FFF796FDBDE820404FF0000659
:100730004FF000074FF000084FF0000B21F00701C9
:10074000AC46ACE8C009ACE8C009ACE8C009ACE80C
:10075000C0098D46704710B50446AFF300802046AF
:10076000BDE81040FFF761BD00487047B8000020A9
:1007700000BFFEE77047F0B50A46002100230024C1
:1007800000BF3DE0012505FA01F3156805EA030401
:100790009C4234D105684F000326BE40B543056036
:1007A00015794E00B5400668354305601579012D71
:1007B00002D01579022D16D185684F000326BE4060
:1007C000B543856055794E00B540866835438560F0
:1007D000456801268E40B5434560456896798E4050
:1007E000B6B235434560C5684F000326BE40B543E9
:1007F000C560D5794E00B540C6683543C560491C13
:100800001029BFD3F0BDF0B5002300244D07ED0E35
:1008100002FA05F3CE1000F1200555F826504E07D8
:10082000F70E0F26BE40B543CF1000F1200646F864
:100830002750CE1000F1200555F8265045EA030454
:10084000CE1000F1200545F82640F0BD00BFFEE7C0
:1008500000BFFEE77047000070B5002100230F22A3
:10086000C4781CB3174C246804F4E064C4F5E06455
:10087000C4F30721C1F10404E3B20A4144789C4067
:10088000E1B28478144021430C07210E0E4C057808
:100890006155047804F01F050124AC4005786D1102
:1008A000AD0005F1E025C5F8004109E0047804F049
:1008B0001F050124AC40054D0678761145F8264009
:1008C00070BD00000CED00E000E400E080E100E01D
:1008D00002490143024A1160704700000000FA0516
:1008E0000CED00E07047000029B1064A126802438F
:1008F000044B1A6004E0034A12688243014B1A60F9
:10090000704700003038024029B1064A126802439D
:10091000044B1A6004E0034A12688243014B1A60D8
:10092000704700004038024029B1064A126802436D
:10093000044B1A6004E0034A12688243014B1A60B8
:100940007047000044380240F0B500210022002426
:10095000022500260223324F3F6807F00C0121B127
:10096000042905D0082937D105E02E4F076036E06D
:100970002D4F076033E02A4F3F1F3F68C7F3805673
:10098000274F3F1F3F6807F03F036EB1264FB7FB6D
:10099000F3F7DFF88CC0ACF1040CDCF800C0CCF34A
:1009A000881C07FB0CF40CE01E4FB7FBF3F7DFF8D5
:1009B00070C0ACF1040CDCF800C0CCF3881C07FB61
:1009C0000CF4174F3F1F3F68C7F301477F1C7D00A2
:1009D000B4FBF5F7076002E0124F076000BF00BFED
:1009E0000F4F3F6807F0F0010909104F7A5C076864
:1009F000D74047600A4F3F6807F4E051890A0B4F20
:100A00007A5C4768D7408760054F3F6807F46041CC
:100A1000490B064F7A5C4768D740C760F0BD0000BD
:100A2000083802400024F40000127A000000002080
:100A3000704700000CB50020019000903448006819
:100A400040F480303249086000BF3148006800F44B
:100A5000003000900198401C0190009818B901984E
:100A6000B0F5A04FF1D12A48006800F4003010B171
:100A70000120009001E0002000900098012846D15C
:100A800023484030006840F08050214940310860E0
:100A90002048006840F440401E4908601C48083067
:100AA00000681B49083108600846006840F40040AF
:100AB00008600846006840F4A05008601648091F06
:100AC0000860081F006840F08070091F086000BFC0
:100AD0000F48006800F000700028F9D040F205705F
:100AE0000E4908600A480830006820F003000849F1
:100AF000083108600846006840F00200086000BF46
:100B000003480830006800F00C000828F8D10CBD3C
:100B1000003802400070004008544007003C02408A
:100B20007047000010B51548006840F47000134984
:100B300008601348006840F0010011490860002077
:100B40000F49083108600E4800680E4908400C49FA
:100B500008600D48091D0860081F006820F4802007
:100B6000091F0860002006490C310860FFF762FF8A
:100B70004FF0006001498039086010BD88ED00E049
:100B800000380240FFFFF6FE1030002410B50121AE
:100B9000044800F04AF818B10121024800F036F884
:100BA00010BD0000001400401FB5044601212020A4
:100BB000FFF7AAFE4FF47A7104FB01F0401E029089
:100BC0005320ADF804000020ADF80600ADF80C008D
:100BD00001A90D4800F044F8012211460A4800F02E
:100BE00035F837208DF8000001208DF801008DF8D0
:100BF00002008DF803006846FFF72EFE012102482F
:100C000000F007F81FBD000000140040CA43028234
:100C1000704721B1028842F00102028004E002889C
:100C20004FF6FE731A400280704730B5024600202E
:100C300000230024158A05EA0103958905EA0104C9
:100C400013B10CB1012000E0002030BD1AB183893E
:100C50000B43838102E083898B43838170470000CB
:100C600000220288184B98420ED0184B98420BD0A5
:100C7000B0F1804F08D0164B984205D0154B9842E2
:100C800002D0154B984204D14FF68F731A404B880F
:100C90001A43124B984207D0114B984204D04FF69A
:100CA000FF431A400B891A4302804B68C3620B88CA
:100CB0000385054B984202D0044B984201D18B7AB0
:100CC0000386012383827047000001400004014035
:100CD0000004004000080040000C004000100040EC
:100CE0000014004010B540F22551094800F04AF9BF
:100CF00068B1074800F000FAC4B221460548064A28
:100D00001268904740F22551014800F013F910BDD8
:100D100000100140100000209800002010B588B09D
:100D2000044601211020FFF7FFFD01210846FFF7CF
:100D3000DBFD02208DF81C0000208DF81E00012034
:100D40008DF81F0002208DF81D004FF4C060069042
:100D500006A91C48FFF70FFD072209211948FFF7D4
:100D600052FD07220A211748FFF74DFD029400208B
:100D7000ADF80C00ADF80E00ADF81000ADF81400A1
:100D80000C20ADF8120002A90F4800F04BF9012227
:100D900040F225510C4800F01FF925208DF8040081
:100DA00003208DF805008DF8060001208DF807005E
:100DB00001A8FFF751FD0121034800F0CAF808B06F
:100DC00010BD0000000002400010014010B50446B4
:100DD0002146054800F095F900BF8021024800F047
:100DE000C4F80028F9D010BD0010014010B540F241
:100DF0002551084800F0C6F858B1064800F07CF9C3
:100E0000C4B2204600F060F840F22551014800F0DD
:100E100091F810BD0044004010B588B0044601218F
:100E20004804FFF771FD01210820FFF75DFD022056
:100E30008DF81C0000208DF81E0001208DF81F0089
:100E400002208DF81D006020069006A91C48FFF7BF
:100E500092FC072205211A48FFF7D5FC072206213C
:100E60001748FFF7D0FC02940020ADF80C00ADF855
:100E70000E00ADF81000ADF814000C20ADF8120013
:100E800002A9104800F0CEF8012240F225510D4889
:100E900000F0A2F826208DF8040003208DF805004C
:100EA00002208DF8060001208DF8070001A8FFF749
:100EB000D3FC0121034800F04CF808B010BD00003D
:100EC000000C02400044004010B50446214605488D
:100ED00000F017F900BF8021024800F046F8002812
:100EE000F9D010BD0044004010B540F2255108482B
:100EF00000F048F858B1064800F0FEF8C4B22046A9
:100F000000F008F840F22551014800F013F810BD38
:100F10000048004010B504462146054800F0F1F8AD
:100F200000BF8021024800F020F80028F9D010BD51
:100F30000048004010B50022002340F66A14A14288
:100F400000D100BF0A1201249440A3B2DC43048004
:100F500010BD21B1828942F40052828104E082896D
:100F60004DF6FF731A408281704702460020B1F5AA
:100F7000007F00D100BF13880B400BB1012000E0BF
:100F80000020704770B50246002400230025002091
:100F900040F66A16B14200D100BFC1F3421501F01C
:100FA0001F03012606FA03F3012D02D1968933406F
:100FB00006E0022D02D1168A334001E0968A3340C2
:100FC0000C12012606FA04F41688344013B10CB151
:100FD000012000E0002070BDF0B50346002400268B
:100FE0000025002040F66A17B94200D100BF18461C
:100FF000C1F3421401F01F06012707FA06F5012C80
:1010000001D10C3004E0022C01D1103000E014308A
:101010001AB107682F43076002E00768AF43076013
:10102000F0BD00002DE9FF4705460E460024A1460D
:1010300000BFA046B08900B100BF2C8A24F4405400
:10104000F08804432C82AC8941F20C608443B08860
:1010500031890843718908430443AC81AC8A24F484
:101060004074B0890443AC826846FFF76DFC2048A9
:10107000854202D01F48854202D1DDF80C9001E084
:10108000DDF80890A88900F4004040B109EBC900E0
:1010900000EB091031684900B0FBF1F707E009EBFC
:1010A000C90000EB091031688900B0FBF1F764203A
:1010B000B7FBF0F004012009642101FB1078A88936
:1010C00000F4004040B1322000EBC800B0FBF1F06A
:1010D00000F00700044308E0322000EB0810642110
:1010E000B0FBF1F000F00F0004432C81BDE8FF8756
:1010F000001001400014014001468888C0F3080038
:101100007047C1F3080282807047000010B5104894
:101110000078D8B10E4890F883100EA0FFF7AEF813
:10112000002407E00A48401C015D12A0FFF7A6F862
:10113000601CC4B2064890F88300A042F2DC0FA005
:10114000FFF79CF802480E490968884710BD000067
:1011500010000020E68890E58A9FE68EA5E694B60A
:1011600025686875E4B8AAE695B0E68DAEEFBC9A3E
:101170000000000030782530325820000D0A0000B1
:101180009C00002000BFFEE730380A2801D2012071
:1011900070470020704700BF704700B5034603E06A
:1011A0004FF47A7000F005F8181EA3F10103F7D18F
:1011B00000BD4FF0E021096941F004014FF0E02249
:1011C0001161A8214143491E5161002191611146DD
:1011D000096941F00101116100BF4FF0E021096987
:1011E00001F480310029F8D04FF0E021096921F0A5
:1011F00001014FF0E02211617047000000BF054A75
:10120000128802F04002002AF9D0C2B2014B9A8043
:10121000704700000010014010B5FFF777FF10BDC8
:1012200000F004F801E0FFF7F7FFFCE71FB54FF40B
:10123000A060FFF74DFB4FF4E130FFF76FFD012099
:10124000FFF7B2FC4FF4E130FFF7E6FD4348FFF74C
:1012500015F843A0FFF712F848A0FFF70FF84BA0CE
:10126000FFF70CF80A20FFF798FF41214D4800F0E6
:1012700040FA0A20FFF791FF4BA0FEF7FFFF4BA0BB
:10128000FEF7FCFF0A20FFF788FF524903C9CDE9AA
:1012900002010023042202A9424800F0EEF90A20CC
:1012A000FFF77BFF40A0FEF7E9FF4BA0FEF7E6FF4C
:1012B0000A20FFF772FF4749083103C9CDE9000151
:1012C000012304226946374800F0D7F90A20FFF7C6
:1012D00064FF35A0FEF7D2FF49A0FEF7CFFF0A203A
:1012E000FFF75BFF4DA12F4800F00AFA0A20FFF735
:1012F00054FF53A0FEF7C2FF5548FEF7BFFF55A0AD
:10130000FEF7BCFF5AA0FEF7B9FF69A0FEF7B6FFD3
:1013100077A0FEF7B3FF7D48FEF7B0FF7C48FEF7ED
:10132000ADFF7CA0FEF7AAFF81A0FEF7A7FF8FA06C
:10133000FEF7A4FF9CA0FEF7A1FFA248FEF79EFFC8
:10134000A1A0FEF79BFF18A0FEF798FFACA0FEF748
:1013500095FFB248FEF792FF1FBD00006C17000812
:101360002323E4B8B2E58FA3E4BE8BE7A88BE78E16
:10137000B0E8B1A123230D0A000000002320E58F6F
:1013800091E9808120230D0A000000002A20E58FCA
:1013900091E98081E4B880E4B8AAE5AD97E88A8253
:1013A000EFBC9A00A00000200D0A00002A20E58F63
:1013B00091E98081E4B880E4B8AAE695B0E7BB84FF
:1013C00028E697A0E6A0A1E9AA8CE5928C29EFBCBB
:1013D0009A000000241700082A20E58F91E98081F7
:1013E000E4B880E4B8AAE695B0E7BB8428E69C8917
:1013F000E6A0A1E9AA8CE5928C29EFBC9A00000036
:101400002A20E58F91E98081E4B880E4B8AAE5ADAF
:1014100097E7ACA6E4B8B2EFBC9A0000555341522E
:101420005431E58F91E98081E695B0E68DAEE6B561
:101430008BE8AF95E68890E58A9F0D0A00000000D2
:101440002320E68EA5E694B620230D0A00000000B6
:101450005C1800082A2055534152545F44454D4FB3
:101460005F4F5054494F4E203D20303A0D0A000046
:101470002020E4B8B2E58FA3E4BC9AE68EA5E694FA
:10148000B6E68C87E5AE9AE995BFE5BAA628E9BB32
:1014900098E8AEA4E4B8BA313029E79A84E695B06A
:1014A000E68DAEE5B9B6E8BF94E59B9E0D0A000057
:1014B0002020E4BE8BE5A68228E4BBA5484558E57C
:1014C000BDA2E5BC8FE58F91E9808129EFBC9A3000
:1014D000302030312030322030332030342030354D
:1014E0002030362030372030382030390D0A0000C7
:1014F0002A2055534152545F44454D4F5F4F50543D
:10150000494F4E203D20313A0D0A0000B418000822
:10151000141800082A2055534152545F44454D4F3A
:101520005F4F5054494F4E203D20323A0D0A000083
:101530002020E4B8B2E58FA3E4BC9AE68EA5E69439
:10154000B6E59B9EE8BDA6E68DA2E8A18CE7ACA619
:10155000E4B98BE5898DE79A84E695B0E68DAEE532
:10156000B9B6E8BF94E59B9E0D0A00002020E4BEBA
:101570008BE5A68228E4BBA5E69687E69CACE5BD94
:10158000A2E5BC8FE58F91E9808129EFBC9A446187
:10159000746120666F722074657374696E675C7223
:1015A0005C6E0D0A000000002A2055534152545F22
:1015B00044454D4F5F4F5054494F4E203D20333AE4
:1015C0000D0A00000C1900082020E4BE8BE5A6825D
:1015D00028E4BBA5E69687E69CACE5BDA2E5BC8FFA
:1015E000E58F91E9808129EFBC9A4461746120669E
:1015F0006F722074657374696E670D0A00000000D5
:101600002323E4B8B2E58FA3E5B18FE4BE8BE7A84E
:101610008BE78EB0E8B1A123230D0A00C81700089C
:1016200000210170704770B504460D46207818BB44
:1016300094F8850018B98121601CFEF791FF012004
:10164000843460702178481C04F88409601C455477
:1016500094F88400812802DB002084F8840094F848
:10166000840094F88310884206DB002084F885000B
:1016700084F884000120207070BD2DE9F0410446FB
:101680000D4617469846002604E0A05D216988476C
:10169000701CC6B26079B042F7DCB8F1000F09D116
:1016A000002604E0A85D21698847701CC6B2BE42CE
:1016B000F8DB11E0002608E0A85D21698847A95DF4
:1016C000E0680844E060701CC6B2BE42F4DB207BD8
:1016D000E060207B21698847002605E0A21D905D1F
:1016E00021698847701CC6B2E07AB042F6DCBDE8DA
:1016F000F08170B504460D4628462169884770BDC3
:1017000070B505460C4603E014F8010B29698847BB
:1017100020780028F8D170BD4FF04070E1EE100A3B
:101720007047000030313233000000003839595A18
:10173000003031323334353637383941424344454D
:10174000464030580030313233343536373839611D
:1017500062636465664030780004000008000000A1
:101760000000000002000100001000002A2A2A2ABE
:101770002A2A2A2A2A2A2A2A2A2A2A2A2A2A2A2AC9
:10178000E4B8B2E58FA3E58F8AE4B8B2E58FA3E5AC
:10179000B18FE6B58BE8AF95E4BE8BE7A88B28E761
:1017A000BC96E7A081E4B8BA5554462D38292A2AB8
:1017B0002A2A2A2A2A2A2A2A2A2A2A2A2A2A2A2A89
:1017C0002A2A0D0A000000002A2A2A2A2A2A2A2A5E
:1017D0002A2A2A2A2A2A2A2A2A2A2A2A2A2A2A2A69
:1017E0002A2A2A2A2A2A2A2A2A2A2A2A2A2A2A2A59
:1017F0002A2A2A2A2A2A2A2A2A2A2A2A2A2A2A2A49
:101800002A2A2A2A2A2A2A2A2A2A2A2A2A2A2A2A38
:101810002A0D0A002020E4BE8BE5A68228E4BBA5A1
:10182000484558E5BDA2E5BC8FE58F91E980812947
:10183000EFBC9A4135203030203031203132203217
:1018400033203334203435203536203637203738AE
:101850002038392035410D0A000000002A20E6B367
:10186000A8EFBC9AE59CA8E5B7A5E7A88BE79A8402
:101870006D61696E2E63E69687E4BBB6E4B8ADE4AD
:10188000BFAEE694B955534152545F44454D4F5F46
:101890004F5054494F4EE5AE8FE58FAFE4BBA5E402
:1018A000BFAEE694B9E68EA5E694B6E69588E69EC8
:1018B0009C0D0A002020E4B8B2E58FA3E4BC9AE6B0
:1018C0008EA5E694B6E58C85E5A4B428E9BB98E836
:1018D000AEA4E4B8BA3078413529E58C85E5B0BED0
:1018E00028E9BB98E8AEA4E4B8BA3078354129E4D9
:1018F000B98BE997B4E79A84E695B0E68DAEE5B981
:10190000B6E8BF94E59B9E0D0A0000002020E4B8D5
:10191000B2E58FA3E68EA5E694B6E588B0E695B06D
:10192000E68DAEE5B0B1E4BC9AE8BF94E59B9EEFCE
:10193000BC8CE995BFE5BAA6E4B88DE8B685E8BFEA
:1019400087E68EA5E694B6E79A84E69C80E5A4A790
:10195000E995BFE5BAA628E9BB98E8AEA4E4B8BA11
:1019600031323829E58DB3E58FAF0D0A0000000054
:101970009019000800000020B8000000C401000811
:10198000481A0008B800002060060000E0010008C6
:101990000000000001020304010203040607080915
:1019A0000000000000000000000000000000000037
:1019B0000000000000000000000000000000000027
:1019C0000000000000000000000000000000000017
:1019D0000000000000000000000000000000000007
:1019E00000000000000000000000000000000000F7
:1019F00000000000000000000000000000000000E7
:101A000000000000000000000000000000000000D6
:101A100000000000000000000000000000000000C6
:101A20000000000A00000000271600082116000828
:101A30004800000000015400000000010000000008
:081A4000CD0D000800000000BC
:040000050800018965
:00000001FF
