:020000040800F2
:100000000809002029020008D3060008CB060008D2
:10001000CF060008890300085D0A00080000000000
:1000200000000000000000000000000019070008A8
:10003000F305000800000000D506000809080008C4
:10004000430200084302000843020008430200087C
:10005000430200084302000843020008430200086C
:10006000430200084302000843020008430200085C
:10007000430200084302000843020008430200084C
:10008000430200084302000843020008430200083C
:10009000430200084302000843020008430200082C
:1000A000430200084302000843020008430200081C
:1000B000430200084302000843020008430200080C
:1000C00043020008430200084302000843020008FC
:1000D00043020008B5090008430200084302000873
:1000E00043020008430200084302000843020008DC
:1000F00043020008430200084302000843020008CC
:1001000043020008430200084302000843020008BB
:1001100043020008430200084302000843020008AB
:10012000430200084302000843020008430200089B
:10013000430200084302000843020008430200088B
:10014000430200084302000843020008430200087B
:10015000430200084302000843020008430200086B
:10016000430200084302000843020008430200085B
:10017000430200084302000843020008430200084B
:10018000430200084302000800F002F800F03CF8C7
:100190000AA090E8000C82448344AAF10107DA45E2
:1001A00001D100F031F8AFF2090EBAE80F0013F0F8
:1001B000010F18BFFB1A43F001031847440D00005C
:1001C000640D0000103A24BF78C878C1FAD85207ED
:1001D00024BF30C830C144BF04680C6070470000C1
:1001E0000023002400250026103A28BF78C1FBD840
:1001F000520728BF30C148BF0B6070471FB500F0E1
:100200006BFE1FBD10B510BD00F08CF81146FFF756
:10021000F5FF00F057FE00F0AAF803B4FFF7F2FF75
:1002200003BC00F049FE0000094880470948004728
:10023000FEE7FEE7FEE7FEE7FEE7FEE7FEE7FEE796
:10024000FEE7FEE704480549054A064B70470000F3
:100250000D08000889010008080300200809002093
:100260000805002008050020704710B5203AC0F0AE
:100270000B80B1E81850203AA0E81850B1E81850A7
:10028000A0E81850BFF4F5AF5FEA027C24BFB1E8E4
:100290001850A0E8185044BF18C918C0BDE8104055
:1002A0005FEA827C24BF51F8043B40F8043B08BF5E
:1002B0007047D20728BF31F8023B48BF11F8012B25
:1002C00028BF20F8023B48BF00F8012B70474FF0D1
:1002D000000200B5134694469646203922BFA0E896
:1002E0000C50A0E80C50B1F12001BFF4F7AF0907A2
:1002F00028BFA0E80C5048BF0CC05DF804EB890093
:1003000028BF40F8042B08BF704748BF20F8022BD5
:1003100011F0804F18BF00F8012B704770477047ED
:1003200070477047754600F02BF8AE4605006946E9
:10033000534620F00700854618B020B5FFF782FF2E
:10034000BDE820404FF000064FF000074FF00008D6
:100350004FF0000B21F00701AC46ACE8C009ACE857
:10036000C009ACE8C009ACE8C0098D46704710B5BB
:100370000446AFF300802046BDE81040FFF74DBFB4
:1003800000487047A402002000BFFEE70246094B68
:100390009A4201D2084801E00648103801F00053A3
:1003A0001BB1064B0B40C36002E0044B0B40836063
:1003B0007047000010640240006002407D0F7D0F16
:1003C00021B1026842F00102026003E0026822F0FB
:1003D0000102026070470000016821F00101016024
:1003E0000021016041608160C160016121214161A2
:1003F0004A49884204D13D21484A103A91608CE034
:1004000046491831884205D14FF47461434A103A85
:10041000916082E041493031884205D14FF4741136
:100420003E4A103A916078E03C494831884205D113
:100430004FF07461394A103A91606EE0374960318B
:10044000884204D13649354A103AD16065E03349D3
:100450007831884204D13349304A103AD1605CE0A7
:100460002E499031884204D12F492C4A103AD1604C
:1004700053E02A49A831884205D14FF03D51274A1F
:10048000103AD16049E02949884204D13D21274AE8
:10049000083A116041E025491831884205D14FF4EE
:1004A0007461224A083A116037E0204930318842AD
:1004B00005D14FF474111D4A083A11602DE01B4913
:1004C0004831884205D14FF07461184A083A1160EA
:1004D00023E016496031884204D11149134A121FA2
:1004E00011601AE011497831884204D10D490F4A50
:1004F000121F116011E00D499031884204D10A4960
:100500000A4A121F116008E00849A831884204D144
:100510004FF03D51054A121F1160704710600240B4
:100520003D000020400F002000003D2010640240EC
:1005300030B503460A46002000240B4DAB4201D2E1
:100540000A4901E00849103902F000550DB14C6824
:1005500000E00C68064D2C4004EA02050DB10120B4
:1005600000E0002030BD0000106402400060024046
:100570007D0F7D0F10B500220268134B1A40CC6826
:100580000B6823434C6923438C692343CC69234381
:100590000C6A23434C6A23438C6A23434C6B2343EA
:1005A0008C6B23431A430260426922F00702D1E9AF
:1005B0000B3423431A4342610B6943604B688360E9
:1005C0008B68C36010BD00003F801CF04160704725
:1005D0000021016041608160C16001614161816110
:1005E000C161016241628162C162016341638163F1
:1005F00070477047F0B50A4600210023002400BF71
:100600003DE0012505FA01F3156805EA03049C4263
:1006100034D105684F000326BE40B5430560157907
:100620004E00B5400668354305601579012D02D0AE
:100630001579022D16D185684F000326BE40B543BB
:10064000856055794E00B5408668354385604568BC
:1006500001268E40B5434560456896798E40B6B216
:1006600035434560C5684F000326BE40B543C560AD
:10067000D5794E00B540C6683543C560491C102980
:10068000BFD3F0BDF0B5002300244D07ED0E02FAF4
:1006900005F3CE1000F1200555F826504E07F70E51
:1006A0000F26BE40B543CF1000F1200646F8275074
:1006B000CE1000F1200555F8265045EA0304CE106F
:1006C00000F1200545F82640F0BD00BFFEE700BF61
:1006D000FEE770477047000029B1064A12680243DE
:1006E000044B1A6004E0034A12688243014B1A600B
:1006F000704700003038024029B1064A12680243B0
:10070000044B1A6004E0034A12688243014B1A60EA
:100710007047000040380240704700000CB50020D0
:10072000019000903448006840F4803032490860FD
:1007300000BF3148006800F4003000900198401C70
:100740000190009818B90198B0F5A04FF1D12A484E
:10075000006800F4003010B10120009001E000209A
:1007600000900098012846D123484030006840F0AE
:1007700080502149403108602048006840F44040E2
:100780001E4908601C48083000681B490831086091
:100790000846006840F4004008600846006840F4DD
:1007A000A05008601648091F0860081F006840F044
:1007B0008070091F086000BF0F48006800F00070DB
:1007C0000028F9D040F205700E4908600A48083048
:1007D000006820F0030008490831086008460068F6
:1007E00040F00200086000BF03480830006800F0D5
:1007F0000C000828F8D10CBD003802400070004001
:1008000008544007003C02407047000010B51548EE
:10081000006840F47000134908601348006840F015
:1008200001001149086000200F49083108600E4896
:1008300000680E4908400C4908600D48091D086011
:10084000081F006820F48020091F08600020064966
:100850000C310860FFF762FF4FF0006001498039FA
:10086000086010BD88ED00E000380240FFFFF6FE92
:100870001030002421B1028842F00102028004E01D
:1008800002884FF6FE731A40028070471AB18389BE
:100890000B43838102E083898B438381704700008F
:1008A00070B5002400220023058C4FF6FE763540FB
:1008B0000584028C8388048B4FF68F752C40B51EFF
:1008C0002C400D882C43751E2A408D892A434D8863
:1008D0002A43104DA84202D00F4DA84213D14FF623
:1008E000F7752A40CD892A434FF6FB752A408D883B
:1008F0002A434FF6FF652B404FF6FF552B400D8ADC
:100900002B434D8A2B43838004838D684563028487
:1009100070BD000000000140000401400A460021B3
:10092000018B4FF6F77319401143018370470000A4
:1009300000220288184B98420ED0184B98420BD0D8
:10094000B0F1804F08D0164B984205D0154B984215
:1009500002D0154B984204D14FF68F731A404B8842
:100960001A43124B984207D0114B984204D04FF6CD
:10097000FF431A400B891A4302804B68C3620B88FD
:100980000385054B984202D0044B984201D18B7AE3
:100990000386012383827047000001400004014068
:1009A0000004004000080040000C0040001000401F
:1009B0000014004010B540F22551074800F01FF820
:1009C00048B140F22551044800F00AF8024800F00E
:1009D00040F80249087010BD001001401A000020C4
:1009E00010B50022002340F66A14A14200D100BFD6
:1009F0000A1201249440A3B2DC43048010BD70B5F8
:100A00000246002400230025002040F66A16B14269
:100A100000D100BFC1F3421501F01F03012606FA01
:100A200003F3012D02D19689334006E0022D02D155
:100A3000168A334001E0968A33400C12012606FAEA
:100A400004F41688344013B10CB1012000E00020FA
:100A500070BD01468888C0F30800704700BFFEE7FC
:100A600000B58FB001214805FFF736FE1A48FFF7A1
:100A7000B3FC3C216846FFF72AFC6846FFF7A8FD57
:100A80004FF02060009015480190154802904020DA
:100A900003904FF495700490002005904FF480600F
:100AA00006904000079080000890002009904FF4C5
:100AB00080300A9000200B9069460748FFF75AFDE6
:100AC0000122510205483438FFF7E0FE00210248B8
:100AD000FFF776FC0FB000BD7060024034040040A8
:100AE0005000002010B54FF495710F48FFF76EFDD0
:100AF00001210E48FFF7BEFE01210B48FFF760FC05
:100B000000BF0B490848FFF713FD0028F9D000216A
:100B10000548FFF755FC06490348FFF737FC00215D
:100B20000248FFF7A7FE10BD7060024000040040BD
:100B3000200000201CB501210846FFF7CDFD002054
:100B40000090019002208DF8040000208DF806002E
:100B500001208DF8070002208DF80500402000904C
:100B600069460248FFF746FD1CBD00000000024038
:100B700010B5FFF7DFFF00F003F8FFF771FF10BDBE
:100B800000B589B001210220FFF7B6FD022206213F
:100B90001848FFF777FD002006900790089068201E
:100BA00007900020ADF81800ADF82000ADF81A004D
:100BB00006A91148FFF7BCFE142101A8FFF787FB27
:100BC0006020ADF804000120ADF80600002003907D
:100BD000ADF81000ADF8140001A90748FFF760FE5A
:100BE00008210548FFF79AFE00210348FFF742FE5F
:100BF00009B000BD0000024000040040002002E0F7
:100C000000BF411C88B242F210718842F8DB704785
:100C100078B50C460C2800DB78BD009400284ADB30
:100C20009DF80210514300EE101AB8EEC00ADFED35
:100C3000430A80EE201ABCEEC10A10EE101AC9B2A7
:100C40008DF802109DF80110514300EE101AB8EE15
:100C5000C00ADFED3A0A80EE201ABCEEC10A10EE9F
:100C6000101AC9B28DF801109DF80010514300EE22
:100C7000101AB8EEC00ADFED310A80EE201ABCEE81
:100C8000C10A10EE101AC9B28DF800102C49009D4F
:100C900041F82050002B4ED0002109E0814200D1C4
:100CA00004E00025264E46F8215000BF4D1CA9B295
:100CB0000C29F3DB3FE09DF80210514300EE101ABF
:100CC000B8EEC00ADFED1D0A80EE201ABCEEC10AA4
:100CD00010EE101AC9B28DF802109DF801105143A0
:100CE00000EE101AB8EEC00ADFED140A80EE201AEA
:100CF000BCEEC10A10EE101AC9B28DF801109DF8B1
:100D00000010514300EE101AB8EEC00ADFED0B0AD6
:100D100080EE201ABCEEC10A10EE101AC9B28DF88E
:100D20000010002105E0064D009E45F821604D1C95
:100D3000A9B20C29F7DB00BF6EE7000000007F437B
:100D40002000002000B587B0002000E0401C2A49A8
:100D5000096842F21072B1FBF2F18142F6D81C220E
:100D600026496846FFF781FA25480078401CC0B242
:100D70002349087005283DDB0020087021480078D1
:100D8000B0B1214A12785DF8221001231F48027881
:100D9000981EFFF73DFF1D480078401C1B49087056
:100DA00008460078642823DB0020164908701FE0FD
:100DB000154A12785DF82210012314480278981E13
:100DC000FFF726FF11480078401E104908700846BA
:100DD000007800280CDC0C480078401C072190FBB0
:100DE000F1F201FB12000849087001200549087062
:100DF00000F00EF807B000BD00000020E40E00086F
:100E00001E0000201D0000201B0000201C000020F0
:100E100010B5002044E000213EE0254A02EB8002AC
:100E200052788A4002F080020AB14B2200E01D2273
:100E300000EB4003052404EBC3030B441D4C24F8D2
:100E400013201B4A02EB800292788A4002F0800253
:100E50000AB14B2300E01D2300EB4002052404EB04
:100E6000C2020A440832134C24F81230104A12F815
:100E700020208A4002F080020AB14B2300E01D23AB
:100E800000EB4002052404EBC2020A441032094C74
:100E900024F812304A1CD1B20829BEDB411C88B2AA
:100EA0000C28B8DBFFF71EFEFFF7A8FE10BD000000
:100EB000200000205000002000BF704710B5FFF751
:100EC00041FF10BD00F004F801E0FFF7F7FFFCE779
:100ED00010B5FFF74DFE10BD4FF04070E1EE100A67
:100EE000704700000000FF0000A5FF0000FFFF00AA
:100EF00000FF0000FFFF0000FF00000080008000F6
:100F0000200F00080000002020000000C40100089D
:100F1000400F000820000020E8080000E001000861
:100F2000007A030A00000000000000000102030430
:100F30000607080900000000000000000001000092
:040000050800018965
:00000001FF
